{
  "contractName": "PurseFactory",
  "abi": [
    {
      "inputs": [],
      "name": "CreateNewPurse",
      "outputs": [],
      "stateMutability": "nonpayable",
      "type": "function"
    },
    {
      "inputs": [],
      "name": "getPurses",
      "outputs": [
        {
          "internalType": "contract Purse[]",
          "name": "",
          "type": "address[]"
        }
      ],
      "stateMutability": "view",
      "type": "function",
      "constant": true
    },
    {
      "inputs": [],
      "name": "formCompleted",
      "outputs": [
        {
          "internalType": "bool",
          "name": "",
          "type": "bool"
        }
      ],
      "stateMutability": "view",
      "type": "function",
      "constant": true
    },
    {
      "inputs": [],
      "name": "setFormCompleted",
      "outputs": [],
      "stateMutability": "nonpayable",
      "type": "function"
    }
  ],
  "bytecode": "0x608060405234801561001057600080fd5b506113ae806100206000396000f3fe60806040523480156200001157600080fd5b5060043610620000525760003560e01c80631c9a0989146200005757806341806ba31462000063578063500011001462000085578063f94b7ab41462000091575b600080fd5b62000061620000b3565b005b6200006d62000192565b6040516200007c919062000340565b60405180910390f35b6200008f620001eb565b005b6200009b62000244565b604051620000aa9190620004a5565b60405180910390f35b600033604051620000c49062000315565b620000d09190620004ee565b604051809103906000f080158015620000ed573d6000803e3d6000fd5b5090506000803373ffffffffffffffffffffffffffffffffffffffff1673ffffffffffffffffffffffffffffffffffffffff168152602001908152602001600020819080600181540180825580915050600190039060005260206000200160009091909190916101000a81548173ffffffffffffffffffffffffffffffffffffffff021916908373ffffffffffffffffffffffffffffffffffffffff16021790555050565b600080600160003373ffffffffffffffffffffffffffffffffffffffff1673ffffffffffffffffffffffffffffffffffffffff16815260200190815260200160002060009054906101000a900460ff1690508091505090565b60018060003373ffffffffffffffffffffffffffffffffffffffff1673ffffffffffffffffffffffffffffffffffffffff16815260200190815260200160002060006101000a81548160ff021916908315150217905550565b6060806000803373ffffffffffffffffffffffffffffffffffffffff1673ffffffffffffffffffffffffffffffffffffffff1681526020019081526020016000208054806020026020016040519081016040528092919081815260200182805480156200030757602002820191906000526020600020905b8160009054906101000a900473ffffffffffffffffffffffffffffffffffffffff1673ffffffffffffffffffffffffffffffffffffffff1681526020019060010190808311620002bc575b505050505090508091505090565b610e6d806200050c83390190565b60008115159050919050565b6200033a8162000323565b82525050565b60006020820190506200035760008301846200032f565b92915050565b600081519050919050565b600082825260208201905092915050565b6000819050602082019050919050565b600073ffffffffffffffffffffffffffffffffffffffff82169050919050565b6000819050919050565b6000620003d4620003ce620003c88462000389565b620003a9565b62000389565b9050919050565b6000620003e882620003b3565b9050919050565b6000620003fc82620003db565b9050919050565b6200040e81620003ef565b82525050565b600062000422838362000403565b60208301905092915050565b6000602082019050919050565b600062000448826200035d565b62000454818562000368565b9350620004618362000379565b8060005b83811015620004985781516200047c888262000414565b975062000489836200042e565b92505060018101905062000465565b5085935050505092915050565b60006020820190508181036000830152620004c181846200043b565b905092915050565b6000620004d68262000389565b9050919050565b620004e881620004c9565b82525050565b6000602082019050620005056000830184620004dd565b9291505056fe60806040523480156200001157600080fd5b5060405162000e6d38038062000e6d8339818101604052810190620000379190620002e3565b620000576200004b6200006f60201b60201c565b6200007760201b60201c565b62000068816200013b60201b60201c565b5062000430565b600033905090565b60008060009054906101000a900473ffffffffffffffffffffffffffffffffffffffff169050816000806101000a81548173ffffffffffffffffffffffffffffffffffffffff021916908373ffffffffffffffffffffffffffffffffffffffff1602179055508173ffffffffffffffffffffffffffffffffffffffff168173ffffffffffffffffffffffffffffffffffffffff167f8be0079c531659141344cd1fd0a4f28419497f9722a3daafe3b4186f6b6457e060405160405180910390a35050565b6200014b6200006f60201b60201c565b73ffffffffffffffffffffffffffffffffffffffff16620001716200025060201b60201c565b73ffffffffffffffffffffffffffffffffffffffff1614620001ca576040517f08c379a0000000000000000000000000000000000000000000000000000000008152600401620001c19062000376565b60405180910390fd5b600073ffffffffffffffffffffffffffffffffffffffff168173ffffffffffffffffffffffffffffffffffffffff16036200023c576040517f08c379a000000000000000000000000000000000000000000000000000000000815260040162000233906200040e565b60405180910390fd5b6200024d816200007760201b60201c565b50565b60008060009054906101000a900473ffffffffffffffffffffffffffffffffffffffff16905090565b600080fd5b600073ffffffffffffffffffffffffffffffffffffffff82169050919050565b6000620002ab826200027e565b9050919050565b620002bd816200029e565b8114620002c957600080fd5b50565b600081519050620002dd81620002b2565b92915050565b600060208284031215620002fc57620002fb62000279565b5b60006200030c84828501620002cc565b91505092915050565b600082825260208201905092915050565b7f4f776e61626c653a2063616c6c6572206973206e6f7420746865206f776e6572600082015250565b60006200035e60208362000315565b91506200036b8262000326565b602082019050919050565b6000602082019050818103600083015262000391816200034f565b9050919050565b7f4f776e61626c653a206e6577206f776e657220697320746865207a65726f206160008201527f6464726573730000000000000000000000000000000000000000000000000000602082015250565b6000620003f660268362000315565b9150620004038262000398565b604082019050919050565b600060208201905081810360008301526200042981620003e7565b9050919050565b610a2d80620004406000396000f3fe60806040526004361061004e5760003560e01c806312065fe0146100a8578063715018a6146100d35780638da5cb5b146100ea578063f274c89714610115578063f2fde38b1461013e576100a3565b366100a3573373ffffffffffffffffffffffffffffffffffffffff167f27b15ed4cf832749ed39f33a64e4707ed60a761485e41ffec7343ecaddc0c02a3460405161009991906105ff565b60405180910390a2005b600080fd5b3480156100b457600080fd5b506100bd610167565b6040516100ca91906105ff565b60405180910390f35b3480156100df57600080fd5b506100e86101eb565b005b3480156100f657600080fd5b506100ff610226565b60405161010c919061065b565b60405180910390f35b34801561012157600080fd5b5061013c600480360381019061013791906106e5565b61024f565b005b34801561014a57600080fd5b5061016560048036038101906101609190610751565b610423565b005b600061017161051a565b73ffffffffffffffffffffffffffffffffffffffff1661018f610226565b73ffffffffffffffffffffffffffffffffffffffff16146101e5576040517f08c379a00000000000000000000000000000000000000000000000000000000081526004016101dc906107db565b60405180910390fd5b47905090565b6040517f08c379a000000000000000000000000000000000000000000000000000000000815260040161021d90610847565b60405180910390fd5b60008060009054906101000a900473ffffffffffffffffffffffffffffffffffffffff16905090565b61025761051a565b73ffffffffffffffffffffffffffffffffffffffff16610275610226565b73ffffffffffffffffffffffffffffffffffffffff16146102cb576040517f08c379a00000000000000000000000000000000000000000000000000000000081526004016102c2906107db565b60405180910390fd5b4781111561030e576040517f08c379a0000000000000000000000000000000000000000000000000000000008152600401610305906108d9565b60405180910390fd5b60008111610351576040517f08c379a000000000000000000000000000000000000000000000000000000000815260040161034890610945565b60405180910390fd5b600073ffffffffffffffffffffffffffffffffffffffff168273ffffffffffffffffffffffffffffffffffffffff160361038a57600080fd5b8173ffffffffffffffffffffffffffffffffffffffff167f7f51d406915971d4ac1c91af96be5187ea6ab64753785aad519a533def80a41e826040516103d091906105ff565b60405180910390a28173ffffffffffffffffffffffffffffffffffffffff166108fc829081150290604051600060405180830381858888f1935050505015801561041e573d6000803e3d6000fd5b505050565b61042b61051a565b73ffffffffffffffffffffffffffffffffffffffff16610449610226565b73ffffffffffffffffffffffffffffffffffffffff161461049f576040517f08c379a0000000000000000000000000000000000000000000000000000000008152600401610496906107db565b60405180910390fd5b600073ffffffffffffffffffffffffffffffffffffffff168173ffffffffffffffffffffffffffffffffffffffff160361050e576040517f08c379a0000000000000000000000000000000000000000000000000000000008152600401610505906109d7565b60405180910390fd5b61051781610522565b50565b600033905090565b60008060009054906101000a900473ffffffffffffffffffffffffffffffffffffffff169050816000806101000a81548173ffffffffffffffffffffffffffffffffffffffff021916908373ffffffffffffffffffffffffffffffffffffffff1602179055508173ffffffffffffffffffffffffffffffffffffffff168173ffffffffffffffffffffffffffffffffffffffff167f8be0079c531659141344cd1fd0a4f28419497f9722a3daafe3b4186f6b6457e060405160405180910390a35050565b6000819050919050565b6105f9816105e6565b82525050565b600060208201905061061460008301846105f0565b92915050565b600073ffffffffffffffffffffffffffffffffffffffff82169050919050565b60006106458261061a565b9050919050565b6106558161063a565b82525050565b6000602082019050610670600083018461064c565b92915050565b600080fd5b60006106868261061a565b9050919050565b6106968161067b565b81146106a157600080fd5b50565b6000813590506106b38161068d565b92915050565b6106c2816105e6565b81146106cd57600080fd5b50565b6000813590506106df816106b9565b92915050565b600080604083850312156106fc576106fb610676565b5b600061070a858286016106a4565b925050602061071b858286016106d0565b9150509250929050565b61072e8161063a565b811461073957600080fd5b50565b60008135905061074b81610725565b92915050565b60006020828403121561076757610766610676565b5b60006107758482850161073c565b91505092915050565b600082825260208201905092915050565b7f4f776e61626c653a2063616c6c6572206973206e6f7420746865206f776e6572600082015250565b60006107c560208361077e565b91506107d08261078f565b602082019050919050565b600060208201905081810360008301526107f4816107b8565b9050919050565b7f63616e27742072656e6f756e63654f776e657273686970206865726500000000600082015250565b6000610831601c8361077e565b915061083c826107fb565b602082019050919050565b6000602082019050818103600083015261086081610824565b9050919050565b7f436f6e747261637420646f65736e2774206f776e20656e6f756768206d6f6e6560008201527f7900000000000000000000000000000000000000000000000000000000000000602082015250565b60006108c360218361077e565b91506108ce82610867565b604082019050919050565b600060208201905081810360008301526108f2816108b6565b9050919050565b7f416d6f756e742068617320746f20626520626967676572207468616e20300000600082015250565b600061092f601e8361077e565b915061093a826108f9565b602082019050919050565b6000602082019050818103600083015261095e81610922565b9050919050565b7f4f776e61626c653a206e6577206f776e657220697320746865207a65726f206160008201527f6464726573730000000000000000000000000000000000000000000000000000602082015250565b60006109c160268361077e565b91506109cc82610965565b604082019050919050565b600060208201905081810360008301526109f0816109b4565b905091905056fea26469706673582212205ee240ceec2ed82b57d6ac515ea8fddf8003d39eaea5d171354cb880285c77e164736f6c634300080d0033a26469706673582212206b1a2780ba4ae9d786e9a869956b09bbdae7eb07b21f0de4e270828234d4e29064736f6c634300080d0033",
  "immutableReferences": {},
  "source": "//SPDX-License-Identifier: MIT\r\n\r\npragma solidity >=0.7.0 <0.9.0;\r\n\r\nimport \"./Purse.sol\";\r\nimport \"@openzeppelin/contracts/access/Ownable.sol\";\r\n\r\ncontract PurseFactory {\r\n    \r\n    //owneraddress => purses\r\n    mapping (address => Purse[]) owneraddressToPursesMap;\r\n    mapping (address => bool) addressToFormCompleted;\r\n\r\n   function CreateNewPurse() public {\r\n     Purse purse = new Purse(msg.sender);\r\n     owneraddressToPursesMap[msg.sender].push(purse);\r\n   }\r\n\r\n   function getPurses() public view returns (Purse[] memory ) {\r\n       Purse [] memory purses ;\r\n       purses = owneraddressToPursesMap[msg.sender];\r\n       return purses;\r\n   }\r\n\r\n   function formCompleted () public view returns (bool) {\r\n       bool isCompleted = addressToFormCompleted[msg.sender];\r\n       return isCompleted;\r\n   }\r\n   function setFormCompleted () public {\r\n       addressToFormCompleted[msg.sender] = true;\r\n   }\r\n\r\n  \r\n\r\n}",
  "sourcePath": "C:\\Users\\tomma\\documents\\my-proyect\\contracts\\PurseFactory.sol",
  "compiler": {
    "name": "solc",
    "version": "0.8.13+commit.abaa5c0e.Emscripten.clang"
  },
  "schemaVersion": "3.4.5",
  "updatedAt": "2022-05-01T02:41:42.453Z",
  "networkType": "ethereum",
  "devdoc": {
    "kind": "dev",
    "methods": {},
    "version": 1
  },
  "userdoc": {
    "kind": "user",
    "methods": {},
    "version": 1
  }
}