{
  "contractName": "Purse",
  "abi": [
    {
      "inputs": [
        {
          "internalType": "address",
          "name": "owner",
          "type": "address"
        }
      ],
      "stateMutability": "nonpayable",
      "type": "constructor"
    },
    {
      "anonymous": false,
      "inputs": [
        {
          "indexed": true,
          "internalType": "address",
          "name": "_from",
          "type": "address"
        },
        {
          "indexed": false,
          "internalType": "uint256",
          "name": "_amount",
          "type": "uint256"
        }
      ],
      "name": "MoneyReceived",
      "type": "event"
    },
    {
      "anonymous": false,
      "inputs": [
        {
          "indexed": true,
          "internalType": "address",
          "name": "_beneficiary",
          "type": "address"
        },
        {
          "indexed": false,
          "internalType": "uint256",
          "name": "_amount",
          "type": "uint256"
        }
      ],
      "name": "MoneySent",
      "type": "event"
    },
    {
      "anonymous": false,
      "inputs": [
        {
          "indexed": true,
          "internalType": "address",
          "name": "previousOwner",
          "type": "address"
        },
        {
          "indexed": true,
          "internalType": "address",
          "name": "newOwner",
          "type": "address"
        }
      ],
      "name": "OwnershipTransferred",
      "type": "event"
    },
    {
      "inputs": [],
      "name": "owner",
      "outputs": [
        {
          "internalType": "address",
          "name": "",
          "type": "address"
        }
      ],
      "stateMutability": "view",
      "type": "function",
      "constant": true
    },
    {
      "inputs": [
        {
          "internalType": "address",
          "name": "newOwner",
          "type": "address"
        }
      ],
      "name": "transferOwnership",
      "outputs": [],
      "stateMutability": "nonpayable",
      "type": "function"
    },
    {
      "stateMutability": "payable",
      "type": "receive",
      "payable": true
    },
    {
      "inputs": [
        {
          "internalType": "address payable",
          "name": "_to",
          "type": "address"
        },
        {
          "internalType": "uint256",
          "name": "_amount",
          "type": "uint256"
        }
      ],
      "name": "withdrawMoney",
      "outputs": [],
      "stateMutability": "nonpayable",
      "type": "function"
    },
    {
      "inputs": [],
      "name": "getBalance",
      "outputs": [
        {
          "internalType": "uint256",
          "name": "",
          "type": "uint256"
        }
      ],
      "stateMutability": "view",
      "type": "function",
      "constant": true
    },
    {
      "inputs": [],
      "name": "renounceOwnership",
      "outputs": [],
      "stateMutability": "pure",
      "type": "function",
      "constant": true
    }
  ],
  "bytecode": "0x60806040523480156200001157600080fd5b5060405162000e6d38038062000e6d8339818101604052810190620000379190620002e3565b620000576200004b6200006f60201b60201c565b6200007760201b60201c565b62000068816200013b60201b60201c565b5062000430565b600033905090565b60008060009054906101000a900473ffffffffffffffffffffffffffffffffffffffff169050816000806101000a81548173ffffffffffffffffffffffffffffffffffffffff021916908373ffffffffffffffffffffffffffffffffffffffff1602179055508173ffffffffffffffffffffffffffffffffffffffff168173ffffffffffffffffffffffffffffffffffffffff167f8be0079c531659141344cd1fd0a4f28419497f9722a3daafe3b4186f6b6457e060405160405180910390a35050565b6200014b6200006f60201b60201c565b73ffffffffffffffffffffffffffffffffffffffff16620001716200025060201b60201c565b73ffffffffffffffffffffffffffffffffffffffff1614620001ca576040517f08c379a0000000000000000000000000000000000000000000000000000000008152600401620001c19062000376565b60405180910390fd5b600073ffffffffffffffffffffffffffffffffffffffff168173ffffffffffffffffffffffffffffffffffffffff16036200023c576040517f08c379a000000000000000000000000000000000000000000000000000000000815260040162000233906200040e565b60405180910390fd5b6200024d816200007760201b60201c565b50565b60008060009054906101000a900473ffffffffffffffffffffffffffffffffffffffff16905090565b600080fd5b600073ffffffffffffffffffffffffffffffffffffffff82169050919050565b6000620002ab826200027e565b9050919050565b620002bd816200029e565b8114620002c957600080fd5b50565b600081519050620002dd81620002b2565b92915050565b600060208284031215620002fc57620002fb62000279565b5b60006200030c84828501620002cc565b91505092915050565b600082825260208201905092915050565b7f4f776e61626c653a2063616c6c6572206973206e6f7420746865206f776e6572600082015250565b60006200035e60208362000315565b91506200036b8262000326565b602082019050919050565b6000602082019050818103600083015262000391816200034f565b9050919050565b7f4f776e61626c653a206e6577206f776e657220697320746865207a65726f206160008201527f6464726573730000000000000000000000000000000000000000000000000000602082015250565b6000620003f660268362000315565b9150620004038262000398565b604082019050919050565b600060208201905081810360008301526200042981620003e7565b9050919050565b610a2d80620004406000396000f3fe60806040526004361061004e5760003560e01c806312065fe0146100a8578063715018a6146100d35780638da5cb5b146100ea578063f274c89714610115578063f2fde38b1461013e576100a3565b366100a3573373ffffffffffffffffffffffffffffffffffffffff167f27b15ed4cf832749ed39f33a64e4707ed60a761485e41ffec7343ecaddc0c02a3460405161009991906105ff565b60405180910390a2005b600080fd5b3480156100b457600080fd5b506100bd610167565b6040516100ca91906105ff565b60405180910390f35b3480156100df57600080fd5b506100e86101eb565b005b3480156100f657600080fd5b506100ff610226565b60405161010c919061065b565b60405180910390f35b34801561012157600080fd5b5061013c600480360381019061013791906106e5565b61024f565b005b34801561014a57600080fd5b5061016560048036038101906101609190610751565b610423565b005b600061017161051a565b73ffffffffffffffffffffffffffffffffffffffff1661018f610226565b73ffffffffffffffffffffffffffffffffffffffff16146101e5576040517f08c379a00000000000000000000000000000000000000000000000000000000081526004016101dc906107db565b60405180910390fd5b47905090565b6040517f08c379a000000000000000000000000000000000000000000000000000000000815260040161021d90610847565b60405180910390fd5b60008060009054906101000a900473ffffffffffffffffffffffffffffffffffffffff16905090565b61025761051a565b73ffffffffffffffffffffffffffffffffffffffff16610275610226565b73ffffffffffffffffffffffffffffffffffffffff16146102cb576040517f08c379a00000000000000000000000000000000000000000000000000000000081526004016102c2906107db565b60405180910390fd5b4781111561030e576040517f08c379a0000000000000000000000000000000000000000000000000000000008152600401610305906108d9565b60405180910390fd5b60008111610351576040517f08c379a000000000000000000000000000000000000000000000000000000000815260040161034890610945565b60405180910390fd5b600073ffffffffffffffffffffffffffffffffffffffff168273ffffffffffffffffffffffffffffffffffffffff160361038a57600080fd5b8173ffffffffffffffffffffffffffffffffffffffff167f7f51d406915971d4ac1c91af96be5187ea6ab64753785aad519a533def80a41e826040516103d091906105ff565b60405180910390a28173ffffffffffffffffffffffffffffffffffffffff166108fc829081150290604051600060405180830381858888f1935050505015801561041e573d6000803e3d6000fd5b505050565b61042b61051a565b73ffffffffffffffffffffffffffffffffffffffff16610449610226565b73ffffffffffffffffffffffffffffffffffffffff161461049f576040517f08c379a0000000000000000000000000000000000000000000000000000000008152600401610496906107db565b60405180910390fd5b600073ffffffffffffffffffffffffffffffffffffffff168173ffffffffffffffffffffffffffffffffffffffff160361050e576040517f08c379a0000000000000000000000000000000000000000000000000000000008152600401610505906109d7565b60405180910390fd5b61051781610522565b50565b600033905090565b60008060009054906101000a900473ffffffffffffffffffffffffffffffffffffffff169050816000806101000a81548173ffffffffffffffffffffffffffffffffffffffff021916908373ffffffffffffffffffffffffffffffffffffffff1602179055508173ffffffffffffffffffffffffffffffffffffffff168173ffffffffffffffffffffffffffffffffffffffff167f8be0079c531659141344cd1fd0a4f28419497f9722a3daafe3b4186f6b6457e060405160405180910390a35050565b6000819050919050565b6105f9816105e6565b82525050565b600060208201905061061460008301846105f0565b92915050565b600073ffffffffffffffffffffffffffffffffffffffff82169050919050565b60006106458261061a565b9050919050565b6106558161063a565b82525050565b6000602082019050610670600083018461064c565b92915050565b600080fd5b60006106868261061a565b9050919050565b6106968161067b565b81146106a157600080fd5b50565b6000813590506106b38161068d565b92915050565b6106c2816105e6565b81146106cd57600080fd5b50565b6000813590506106df816106b9565b92915050565b600080604083850312156106fc576106fb610676565b5b600061070a858286016106a4565b925050602061071b858286016106d0565b9150509250929050565b61072e8161063a565b811461073957600080fd5b50565b60008135905061074b81610725565b92915050565b60006020828403121561076757610766610676565b5b60006107758482850161073c565b91505092915050565b600082825260208201905092915050565b7f4f776e61626c653a2063616c6c6572206973206e6f7420746865206f776e6572600082015250565b60006107c560208361077e565b91506107d08261078f565b602082019050919050565b600060208201905081810360008301526107f4816107b8565b9050919050565b7f63616e27742072656e6f756e63654f776e657273686970206865726500000000600082015250565b6000610831601c8361077e565b915061083c826107fb565b602082019050919050565b6000602082019050818103600083015261086081610824565b9050919050565b7f436f6e747261637420646f65736e2774206f776e20656e6f756768206d6f6e6560008201527f7900000000000000000000000000000000000000000000000000000000000000602082015250565b60006108c360218361077e565b91506108ce82610867565b604082019050919050565b600060208201905081810360008301526108f2816108b6565b9050919050565b7f416d6f756e742068617320746f20626520626967676572207468616e20300000600082015250565b600061092f601e8361077e565b915061093a826108f9565b602082019050919050565b6000602082019050818103600083015261095e81610922565b9050919050565b7f4f776e61626c653a206e6577206f776e657220697320746865207a65726f206160008201527f6464726573730000000000000000000000000000000000000000000000000000602082015250565b60006109c160268361077e565b91506109cc82610965565b604082019050919050565b600060208201905081810360008301526109f0816109b4565b905091905056fea26469706673582212205ee240ceec2ed82b57d6ac515ea8fddf8003d39eaea5d171354cb880285c77e164736f6c634300080d0033",
  "immutableReferences": {},
  "source": "//SPDX-License-Identifier: MIT\r\n\r\npragma solidity ^0.8.13;\r\n\r\n//import  \"./Enumerable.sol\";\r\nimport \"@openzeppelin/contracts/access/Ownable.sol\";\r\n \r\ncontract Purse is Ownable {\r\n    \r\n    event MoneySent(address indexed _beneficiary, uint _amount);\r\n    event MoneyReceived(address indexed _from, uint _amount);\r\n\r\n     constructor (address owner) {\r\n        transferOwnership(owner);\r\n    }    \r\n\r\n    function withdrawMoney(address payable _to, uint _amount) public onlyOwner {\r\n         require(_amount <= address(this).balance, \"Contract doesn't own enough money\");\r\n         require(_amount > 0, \"Amount has to be bigger than 0\");\r\n         require(_to != address(0));\r\n         emit MoneySent(_to, _amount);\r\n        _to.transfer(_amount);\r\n    }\r\n\r\n    function getBalance () public view onlyOwner returns(uint) {\r\n        return address(this).balance;\r\n    }\r\n\r\n    receive() external payable {\r\n        emit MoneyReceived(msg.sender, msg.value);\r\n    }\r\n\r\n     function renounceOwnership() public pure override  {\r\n        revert(\"can't renounceOwnership here\"); \r\n    }\r\n\r\n\r\n}",
  "sourcePath": "C:\\Users\\tomma\\documents\\my-proyect\\contracts\\Purse.sol",
  "compiler": {
    "name": "solc",
    "version": "0.8.13+commit.abaa5c0e.Emscripten.clang"
  },
  "schemaVersion": "3.4.5",
  "updatedAt": "2022-05-01T02:41:42.444Z",
  "networkType": "ethereum",
  "devdoc": {
    "kind": "dev",
    "methods": {
      "owner()": {
        "details": "Returns the address of the current owner."
      },
      "renounceOwnership()": {
        "details": "Leaves the contract without owner. It will not be possible to call `onlyOwner` functions anymore. Can only be called by the current owner. NOTE: Renouncing ownership will leave the contract without an owner, thereby removing any functionality that is only available to the owner."
      },
      "transferOwnership(address)": {
        "details": "Transfers ownership of the contract to a new account (`newOwner`). Can only be called by the current owner."
      }
    },
    "version": 1
  },
  "userdoc": {
    "kind": "user",
    "methods": {},
    "version": 1
  }
}